:100000000C942A000C9447000C9447000C94470071
:100010000C9447000C9447000C9447000C94510436
:100020000C94FF030C9428040C94D6030C94470002
:100030000C9447000C9447000C9447000C94470024
:100040000C9447000C9447000C9447000C94470014
:100050000C94470011241FBECFE5D8E0DEBFCDBF12
:1000600010E0A0E6B0E0E8E4F9E002C005900D92EF
:10007000A038B107D9F720E0A0E8B0E001C01D9298
:10008000AF38B207E1F70E94C8010C94A2040C94A7
:100090000000CF93C82F60E089E10E94E5016C2F3A
:1000A00082E00E94660261E088E10E94E5018FEC37
:1000B00097E00197F1F700C0000060E088E10E943E
:1000C000E5018FEC97E00197F1F700C00000CF91B8
:1000D0000895CF93C82F61E089E10E94E5016C2F5C
:1000E00082E00E94660261E088E10E94E5018FECF7
:1000F00097E00197F1F700C0000060E088E10E94FE
:10010000E5018FEC97E00197F1F700C00000CF9177
:1001100008952FE788E391E0215080409040E1F777
:1001200000C0000088E30E9449008FEC97E001972F
:10013000F1F700C000008CE00E9449008FEC97E0CE
:100140000197F1F700C0000081E00E9449008FECA8
:1001500097E00197F1F700C0000086E00C94490099
:100160000F931F93CF938C01C0E0F801EC0FF11DAA
:100170008081882321F00E946900CF5FF6CFCF9164
:100180001F910F910895FC019F01281B390B41918C
:100190004111FACFC9010895CF93DF93EC010E947A
:1001A000C3009C0121503109FE01E80FF91FDE0157
:1001B000CD018C1B9D0B281739073CF08C91929137
:1001C0009D93808321503109F3CFDF91CF91089522
:1001D000CF92DF92EF92FF920F931F93CF93DF9313
:1001E000FB01009761F480E380831182DF91CF915E
:1001F0001F910F91FF90EF90DF90CF90089597FFA0
:1002000006C091958195910901E010E002C000E0DF
:1002100010E07F01C0E0D0E02AE0C22ED12CB60170
:100220000E948E04805DD7018D937D019E012F5F1A
:100230003F4FCB01009711F0E901F1CF01301105DB
:1002400039F4DF01A20FB31F8DE28C932F5F3F4F74
:10025000DF01A20FB31F1C92CF01DF91CF911F913D
:100260000F91FF90EF90DF90CF900C94CC00CF9344
:10027000DF93CDB7DEB760970FB6F894DEBF0FBE41
:10028000CDBFDC01CB01BE016F5F7F4F0E94E80054
:10029000CE0101960E94B00060960FB6F894DEBFC2
:1002A0000FBECDBFDF91CF91089580918000811165
:1002B0000BC086B597B5909384008093830081E04E
:1002C0000E94C20381E00BC080918000813049F41C
:1002D00086B597B5909382008093810082E08093E9
:1002E000800008958CE08FBD0E94CD0385E591E0EC
:1002F0000E94D103789408950F931F93CF93C82F32
:100300008B011DBC1CBC17BC16BC109280002FEFCB
:1003100086E791E0215080409040E1F700C0000066
:1003200061E08C2F0E94E501EAE1EA95F1F700C057
:1003300060E08C2F0E94E50180E00E94C20389EDFD
:1003400099E520918000223038F4019729F0F2E0FD
:10035000FA95F1F700C0F5CF80918000823099F4D2
:1003600080918100909182002091830030918400DF
:10037000821B930B6AE370E00E947A04F801718398
:10038000608381E001C080E0CF911F910F910895BB
:10039000789420E040E062E080E00E9454030E94F4
:1003A00076020E9489000E94720165E870E083E095
:1003B0000E947C018823C9F36091850070918600BA
:1003C00080E090E00E943701F0CF982F96959695A7
:1003D000969587706130C1F5913091F028F0923098
:1003E000D9F0933029F108954BB321E030E0B90101
:1003F00002C0660F771F8A95E2F7CB01842B3AC0C3
:1004000048B321E030E0B90102C0660F771F8A953A
:10041000E2F7CB01842B3CC045B321E030E0B901C9
:1004200002C0660F771F8A95E2F7CB01842B3EC08E
:1004300042B321E030E0B90102C0660F771F8A9510
:10044000E2F7CB01842B40C061113FC09130A1F095
:1004500028F09230F9F0933059F108954BB321E030
:1004600030E0B90102C0660F771F8A95E2F7CB0131
:10047000809584238BBB089548B321E030E0B90117
:1004800002C0660F771F8A95E2F7CB01809584231F
:1004900088BB089545B321E030E0B90102C0660F82
:1004A000771F8A95E2F7CB018095842385BB089559
:1004B00042B321E030E0B90102C0660F771F8A9590
:1004C000E2F7CB018095842382BB0895813041F00F
:1004D00028F0823039F0833039F008956BBB0895ED
:1004E00068BB089565BB089562BB0895E0E6F0E03F
:1004F00040E081E090E05191342F36953695369565
:10050000242F2770513009F443C020F0523009F4F1
:1005100082C0C5C0323001F1333061F1313071F049
:100520005AB3BC0102C0660F771F2A95E2F79B0100
:10053000352F322B3ABB3BB320953DC057B3BC019E
:1005400002C0660F771F2A95E2F79B01352F322BE9
:1005500037BB38B320953EC054B3BC0102C0660F10
:10056000771F2A95E2F79B01352F322B34BB35B329
:1005700020953FC051B3BC0102C0660F771F2A957A
:10058000E2F79B01352F322B31BB32B3209541C0AE
:10059000323011F1333081F1313079F05AB3BC018E
:1005A00002C0660F771F2A95E2F79B012095352F31
:1005B00032233ABB3BB3232342C057B3BC0102C032
:1005C000660F771F2A95E2F79B012095352F32237E
:1005D00037BB38B3232343C054B3BC0102C0660FFA
:1005E000771F2A95E2F79B012095352F322334BBE4
:1005F00035B3232325BB53C051B3BC0102C0660FE2
:10060000771F2A95E2F79B012095352F322331BBC6
:1006100032B3232343C0323021F1333089F13130FA
:1006200081F05AB3BC0102C0660F771F2A95E2F72A
:100630009B01362F309535233ABB3BB3232B2BBB85
:100640002EC057B3BC0102C0660F771F2A95E2F790
:100650009B01362F3095352337BB38B3232B28BB6E
:100660001EC054B3BC0102C0660F771F2A95E2F783
:100670009B01362F3095352334BB35B3232BBACFAE
:1006800051B3BC0102C0660F771F2A95E2F79B01A8
:10069000362F3095352331BB32B3232B22BB4F5F2E
:1006A000403209F028CF08958230D9F050F48823E1
:1006B00079F0813071F58FB58E7F8FBD8FB58D7FCD
:1006C00021C08330D1F0843021F58FB5816017C00F
:1006D0008FB58E7F8FBD8FB58D7F8FBD8EB5877F98
:1006E00008C08FB58E7F8FBD8FB58D7F8FBD8EB5C6
:1006F00088608EBD8EB58F7E0BC08FB58E7F8FBD0F
:100700008FB582608FBD8EB588608EBD8EB58061DD
:100710008EBD413059F038F0423071F0433091F4E1
:100720008FB580640BC08FB58F7B02C08FB580649E
:100730008FBD8FB58F7705C08FB58F7B8FBD8FB580
:1007400080688FBD213059F038F0223071F02330AD
:1007500091F48FB580610BC08FB58F7E02C08FB5CD
:1007600080618FBD8FB58F7D05C08FB58F7E8FBDAA
:100770008FB580628FBD8EB5887F8EBD8EB5682B9C
:100780006EBD0895811103C08EB5806404C08130B0
:1007900019F48EB58F7B8EBD089589B7806289BFAD
:1007A0000895909388008093870008951F920F9278
:1007B0000FB60F9211242F933F934F935F936F9334
:1007C0007F938F939F93AF93BF93EF93FF93E091AA
:1007D0008D00F0918E00309709F00995FF91EF910F
:1007E000BF91AF919F918F917F916F915F914F9149
:1007F0003F912F910F900FBE0F901F9018951F9251
:100800000F920FB60F9211242F933F934F935F9344
:100810006F937F938F939F93AF93BF93EF93FF93C8
:10082000E0918B00F0918C00309709F00995FF91D1
:10083000EF91BF91AF919F918F917F916F915F9158
:100840004F913F912F910F900FBE0F901F901895D1
:100850001F920F920FB60F9211242F933F934F9335
:100860005F936F937F938F939F93AF93BF93EF9318
:10087000FF93E0918900F0918A00309709F0099583
:10088000FF91EF91BF91AF919F918F917F916F9168
:100890005F914F913F912F910F900FBE0F901F903E
:1008A00018951F920F920FB60F9211242F933F931A
:1008B0004F935F936F937F938F939F93AF93BF9368
:1008C000EF93FF93E0918700F0918800309709F053
:1008D0000995FF91EF91BF91AF919F918F917F917A
:1008E0006F915F914F913F912F910F900FBE0F909D
:1008F0001F901895AA1BBB1B51E107C0AA1FBB1F65
:10090000A617B70710F0A61BB70B881F991F5A959B
:10091000A9F780959095BC01CD01089597FB072E0E
:1009200016F4009407D077FD09D00E947A0407FCE2
:1009300005D03EF4909581959F4F089570956195EF
:080940007F4F0895F894FFCFEA
:100948000000000001010000000000000202020295
:10095800000000000000000000000000020201008A
:00000001FF
